:100000000C942A000C9447000C9447000C94470071
:100010000C9447000C9447000C9447000C94470044
:100020000C9447000C9447000C9447000C94470034
:100030000C9447000C9447000C9447000C94470024
:100040000C9447000C9447000C9447000C94470014
:100050000C94470011241FBECFE5D4E0DEBFCDBF16
:1000600011E0A0E6B0E0E8EFF9E002C005900D92E3
:10007000A630B107D9F711E0A6E0B1E001C01D92AA
:10008000A730B107E1F70E944B040C94FA040C94DA
:10009000000095B39F7095BB9698979A25B3982FBB
:1000A000907F292B25BB25B3922B95BB979895B3B1
:1000B0009F7095BB9698979A95B38295807F982B61
:1000C00095BB95B3892B85BB9798089595B39F7081
:1000D00095BB969A979A25B3982F907F292B25BB8D
:1000E00025B3922B95BB979895B39F7095BB969A25
:1000F000979A95B38295807F982B95BB95B3892B62
:1001000085BB9798089581E00E944900089582E098
:100110000E94490008951F93882311F41CE001C038
:100120001EE0611111608F9A8E9A84B3806F84BB38
:1001300085B38F7085BB80E09698979A95B390634E
:1001400095BB95B3906395BB97988F5F8330A1F76C
:1001500085B38F7085BB9698979AAD9AAD9A97980C
:1001600088E20E946600812F0E9449000E9483005D
:100170000E9487001F910895823029F4862F8054B1
:100180000E9449000895862F80580E9449000895D2
:10019000CF93DF93EC018881882331F021960E9470
:1001A000660089918823D9F7DF91CF9108956F92E6
:1001B0007F928F929F92AF92BF92CF92DF92EF92F7
:1001C000FF920F931F93DF93CF93CDB7DEB7E42E4B
:1001D0006DB67EB62DB73EB7241B31090FB6F89425
:1001E0003EBF0FBE2DBF0DB71EB70F5F1F4F48019B
:1001F000442319F1FF240F2EFAE0AF2EF0E0BF2EBA
:10020000F0E0CF2EF0E0DF2EF02DA60195010E9448
:100210009304605DF80161938F01622F732F842F27
:10022000952FF394FE1488F3F401EE0DF11D319730
:1002300080810E946600EA94B9F70FB6F8947EBEFA
:100240000FBE6DBECF91DF911F910F91FF90EF9088
:10025000DF90CF90BF90AF909F908F907F906F90E6
:10026000089520E032E1829FA001839F500D929F6C
:10027000500D11244115510531F080E090E00196B8
:1002800084179507E0F3089590BD89B98AB1886114
:100290008AB95298663071F0673018F4653079F495
:1002A00005C0673029F0693051F406C080E808C005
:1002B00084E806C082E804C0529A86E801C086E855
:1002C000413011F4806303C0423009F4806222306F
:1002D00009F4886080BD08955D9BFECF8CB90895B8
:1002E000CF93DF93EC018881882331F021960E941F
:1002F0006C0189918823D9F7DF91CF91089581B35B
:100300008FEF81BB92B392BB94B384BB85B385BBA3
:100310001ABA1BBA089595B398708430E1F085300D
:1003200048F4813091F0813070F0823081F0833078
:10033000D9F40FC0863099F0863078F0873089F094
:10034000893091F410C090680FC0936E0DC0946412
:100350000BC0916409C0936207C0916105C09061B0
:1003600003C0936C01C0916095BB089520E032E119
:10037000829FA001839F500D929F500D1124411523
:10038000510549F408950197F1F72F5F3F4F241766
:10039000350718F0089520E030E085E390E0F3CFD2
:1003A00086B38F708F3051F0B09B0AC0B19B0AC0EA
:1003B000B29B0AC0B39B0AC080E0089580E0089514
:1003C00081E0089582E0089583E0089584E008952F
:1003D000DF92EF92FF920F931F93EE24EA940F2E79
:1003E000FFECFF2EF02D0FE31CEF0F2EF3EFDF2EAF
:1003F000F02D0E94D001809306010E948B01809114
:100400000601823061F0833018F4813071F405C048
:10041000833039F0843049F406C012BBEACFD2BA37
:10042000E8CFF2BAE6CF02BBE4CFE2BAE2CF0F9355
:100430001F93062F882319F0662359F411C06623F1
:1004400079F010E08CE10E9449001F5F1017D0F393
:1004500007C010E088E10E9449001F5F1017D0F329
:100460001F910F9108950F931F93CF93DF9383E311
:1004700090E068E040E021E00E944401889A95986D
:1004800085B38F6085BB80E060E00E948B0081E0D7
:1004900060E00E94BC0080E690E00E94C80082E01C
:1004A00060E00E94BC0086E890E00E94C800C0E6C0
:1004B000D0E006E810E0CE010E9470018DE00E94BD
:1004C0006C018AE00E946C01C8010E9470018DE0FD
:1004D0000E946C018AE00E946C018DE00E946C0118
:1004E0008AE00E946C018FEF99E6A8E1815090406C
:1004F000A040E1F700C0000081E061E00E94170227
:10050000DACFDF93CF93CDB7DEB72A970FB6F89443
:10051000DEBF0FBECDBFDE011196ECEFF0E09AE03A
:1005200001900D929150E1F7FE01E80FF11D41811C
:1005300080E090E020E030E045BB01968A309105F4
:10054000DCF3C901F9CFEF92FF920F931F93DF9372
:10055000CF93CDB7DEB72A970FB6F894DEBF0FBEA4
:10056000CDBFDE011196E2EFF0E08AE001900D923E
:100570008150E1F76FEF80E090E0AFEF7E010894EB
:10058000E11CF11C40E050E062BB662331F0883092
:1005900091052CF4660F660F03C06A2F01C06A2F05
:1005A000F701E80FF91F708175BB0FEF14E32CE022
:1005B000015010402040E1F700C0000002968A3050
:1005C000910514F3CA01E0CF85BB96989598979A48
:1005D00082E08A95F1F700C097988FE697E101973E
:1005E000F1F700C00000089585BB969A9598979AF8
:1005F00082E08A95F1F700C097988FEC97E0019719
:10060000F1F700C0000008958FEF81BB84BB8FE33A
:100610009CE90197F1F700C0000088E30E94E40222
:100620008CE00E94E40286E00E94E40281E00E94E5
:10063000E40280E80E94E4020895CF93DF93EC0186
:100640008881882331F021960E94F40289918823C1
:10065000D9F7DF91CF910895CF93DF93EA018823F3
:1006600041F4603178F4862F8F7080680E94E40234
:1006700009C0813039F4603128F4862F8F70806C86
:100680000E94E402CE010E941D03DF91CF910895E4
:1006900081E00E94E40280E80E94E4020895CF9283
:1006A000DF92EF92FF920F931F93DF93CF93CDB71B
:1006B000DEB7CD54D0400FB6F894DEBF0FBECDBF2D
:1006C000DE011196E0E6F0E086E201900D928150A5
:1006D000E1F7DE019796EFE9F0E087E201900D92F5
:1006E0008150E1F70E940403CE0101960E941D0390
:1006F00081E060E0AE01495D5F4F0E942C038FEF07
:1007000099E6A8E181509040A040E1F700C00000C8
:1007100000E010E00F2EFEE1EF2EFF24F02DCC24A0
:10072000DD240EC08CE10E94E4028FEF99E6A8E17F
:1007300081509040A040E1F700C000000F5F1F4FC4
:100740000E3111057CF3870188E10E94E4028FEFEE
:1007500099E6A8E181509040A040E1F700C0000078
:100760000150104089F78601EBCF1ABA87E886B9A5
:1007700080E487B9089597B18F70982B97B9369A0E
:10078000349BFECF8AE18A95F1F700C084B195B120
:10079000392F20E0280F311D822F932F08950F93BA
:1007A0001F93DF93CF9300D000D00F92CDB7DEB769
:1007B0000E94B5030E94040386EC90E00E941D0392
:1007C00081E060E045ED50E00E942C038E010F5F58
:1007D0001F4F84EC0E94E40280E00E94BB03B8013A
:1007E0004AE050E00E94B50481E066E0A8010E9462
:1007F0002C038FEF94E3ACE081509040A040E1F7F0
:1008000000C00000E6CF2AB128612AB920B52668C9
:1008100020BD9B01AC01220F331F441F551F220F27
:10082000331F441F551F220F331F441F551F220F14
:10083000331F441F551F60E072E18AE790E00E9479
:100840009304822F815089B921503040404050405C
:10085000232F342F452F552720BD08955F9BFECFB2
:100860008CB108955D9BFECF8CB908951F93CF93F3
:10087000DF93EC018881882351F010E00E9432045C
:100880001F5FFE01E10FF11D80818823B9F7DF9121
:10089000CF911F910895EF92FF920F931F93DF93D3
:1008A000CF93CDB7DEB72B970FB6F894DEBF0FBE50
:1008B000CDBFDE011196E7EEF0E08BE001900D92E6
:1008C0008150E1F70E940403CE0101960E941D03AE
:1008D0008FEF99E6A8E181509040A040E1F700C079
:1008E000000060E875E280E090E00E9403048E0161
:1008F0000F5F1F4F0F2EF5EEEF2EF0E0FF2EF02DC5
:10090000C8010E943604C7010E94360488E10E9493
:10091000E4028FEF99E6A8E181509040A040E1F712
:1009200000C00000EDCFA1E21A2EAA1BBB1BFD01E7
:100930000DC0AA1FBB1FEE1FFF1FA217B307E407BE
:10094000F50720F0A21BB30BE40BF50B661F771F16
:10095000881F991F1A9469F76095709580959095F6
:100960009B01AC01BD01CF010895FB019F01E894FB
:100970004230C4F04532B4F44A3029F497FB1EF4F7
:10098000909581959F4F642F77270E94E604805DA4
:100990008A330CF0895D8193CB010097A1F716F49F
:1009A0005DE251931082C9010C94D604DC01FC0174
:1009B000672F71917723E1F7329704C07C916D9393
:1009C00070836291AE17BF07C8F30895AA1BBB1BC3
:1009D00051E107C0AA1FBB1FA617B70710F0A61B3F
:1009E000B70B881F991F5A95A9F780959095BC0160
:0809F000CD010895F894FFCF3A
:1009F800434855204D494E48205048554F4E472CA6
:100A08002032303137303033322C20445456542081
:100A1800352D4B3632005669656E20445456542C99
:100A2800205472756F6E67204448424B484E0056FA
:100A380069656E204469656E2074752D5669656E0A
:100A48002054686F6E672C205472756F6E6720444F
:100A580048424B484E005465737420414443202655
:100A6800204C434400414443303A20202020202F8A
:100A780031303233000A0048656C6C6F2042616285
:100A8800790088EB4C492B1918CB080988EB4C499D
:060A98002B1918CB080920
:00000001FF
